{
  "_format": "hh-sol-artifact-1",
  "contractName": "BlueCarbonRegistry",
  "sourceName": "contracts/BlueCarbonRegistry.sol",
  "abi": [
    {
      "inputs": [],
      "stateMutability": "nonpayable",
      "type": "constructor"
    },
    {
      "anonymous": false,
      "inputs": [
        {
          "indexed": true,
          "internalType": "string",
          "name": "projectId",
          "type": "string"
        },
        {
          "indexed": false,
          "internalType": "uint256",
          "name": "creditsIssued",
          "type": "uint256"
        },
        {
          "indexed": false,
          "internalType": "string",
          "name": "verificationStatus",
          "type": "string"
        },
        {
          "indexed": false,
          "internalType": "uint256",
          "name": "timestamp",
          "type": "uint256"
        },
        {
          "indexed": true,
          "internalType": "address",
          "name": "auditor",
          "type": "address"
        }
      ],
      "name": "ProjectVerified",
      "type": "event"
    },
    {
      "inputs": [],
      "name": "getAllProjects",
      "outputs": [
        {
          "internalType": "string[]",
          "name": "",
          "type": "string[]"
        }
      ],
      "stateMutability": "view",
      "type": "function"
    },
    {
      "inputs": [
        {
          "internalType": "string",
          "name": "projectId",
          "type": "string"
        }
      ],
      "name": "getVerificationRecord",
      "outputs": [
        {
          "internalType": "string",
          "name": "",
          "type": "string"
        },
        {
          "internalType": "uint256",
          "name": "",
          "type": "uint256"
        },
        {
          "internalType": "string",
          "name": "",
          "type": "string"
        },
        {
          "internalType": "uint256",
          "name": "",
          "type": "uint256"
        },
        {
          "internalType": "address",
          "name": "",
          "type": "address"
        }
      ],
      "stateMutability": "view",
      "type": "function"
    },
    {
      "inputs": [],
      "name": "owner",
      "outputs": [
        {
          "internalType": "address",
          "name": "",
          "type": "address"
        }
      ],
      "stateMutability": "view",
      "type": "function"
    },
    {
      "inputs": [
        {
          "internalType": "string",
          "name": "projectId",
          "type": "string"
        },
        {
          "internalType": "uint256",
          "name": "creditsIssued",
          "type": "uint256"
        },
        {
          "internalType": "string",
          "name": "verificationStatus",
          "type": "string"
        }
      ],
      "name": "verifyProject",
      "outputs": [],
      "stateMutability": "nonpayable",
      "type": "function"
    }
  ],
  "bytecode": "0x608060405234801561001057600080fd5b50336000806101000a81548173ffffffffffffffffffffffffffffffffffffffff021916908373ffffffffffffffffffffffffffffffffffffffff160217905550611081806100606000396000f3fe608060405234801561001057600080fd5b506004361061004c5760003560e01c806361de44b41461005157806380d03829146100855780638b764f09146100a35780638da5cb5b146100bf575b600080fd5b61006b600480360381019061006691906107ef565b6100dd565b60405161007c959493929190610911565b60405180910390f35b61008d610315565b60405161009a9190610a7e565b60405180910390f35b6100bd60048036038101906100b89190610acc565b6103ee565b005b6100c7610671565b6040516100d49190610b57565b60405180910390f35b60606000606060008060006001876040516100f89190610bae565b90815260200160405180910390206040518060a001604052908160008201805461012190610bf4565b80601f016020809104026020016040519081016040528092919081815260200182805461014d90610bf4565b801561019a5780601f1061016f5761010080835404028352916020019161019a565b820191906000526020600020905b81548152906001019060200180831161017d57829003601f168201915b50505050508152602001600182015481526020016002820180546101bd90610bf4565b80601f01602080910402602001604051908101604052809291908181526020018280546101e990610bf4565b80156102365780601f1061020b57610100808354040283529160200191610236565b820191906000526020600020905b81548152906001019060200180831161021957829003601f168201915b50505050508152602001600382015481526020016004820160009054906101000a900473ffffffffffffffffffffffffffffffffffffffff1673ffffffffffffffffffffffffffffffffffffffff1673ffffffffffffffffffffffffffffffffffffffff1681525050905060008160600151116102e8576040517f08c379a00000000000000000000000000000000000000000000000000000000081526004016102df90610c97565b60405180910390fd5b80600001518160200151826040015183606001518460800151955095509550955095505091939590929450565b60606002805480602002602001604051908101604052809291908181526020016000905b828210156103e557838290600052602060002001805461035890610bf4565b80601f016020809104026020016040519081016040528092919081815260200182805461038490610bf4565b80156103d15780601f106103a6576101008083540402835291602001916103d1565b820191906000526020600020905b8154815290600101906020018083116103b457829003601f168201915b505050505081526020019060010190610339565b50505050905090565b60008054906101000a900473ffffffffffffffffffffffffffffffffffffffff1673ffffffffffffffffffffffffffffffffffffffff163373ffffffffffffffffffffffffffffffffffffffff161461047c576040517f08c379a000000000000000000000000000000000000000000000000000000000815260040161047390610d03565b60405180910390fd5b60008351116104c0576040517f08c379a00000000000000000000000000000000000000000000000000000000081526004016104b790610d6f565b60405180910390fd5b60006001846040516104d29190610bae565b9081526020016040518091039020600301540361051f5760028390806001815401808255809150506001900390600052602060002001600090919091909150908161051d9190610f3b565b505b6040518060a001604052808481526020018381526020018281526020014281526020013373ffffffffffffffffffffffffffffffffffffffff1681525060018460405161056c9190610bae565b9081526020016040518091039020600082015181600001908161058f9190610f3b565b506020820151816001015560408201518160020190816105af9190610f3b565b506060820151816003015560808201518160040160006101000a81548173ffffffffffffffffffffffffffffffffffffffff021916908373ffffffffffffffffffffffffffffffffffffffff1602179055509050503373ffffffffffffffffffffffffffffffffffffffff16836040516106299190610bae565b60405180910390207f1951315c76a8dda7fed9b56661c15acd939bece9d649426b02bc44c119bca22c8484426040516106649392919061100d565b60405180910390a3505050565b60008054906101000a900473ffffffffffffffffffffffffffffffffffffffff1681565b6000604051905090565b600080fd5b600080fd5b600080fd5b600080fd5b6000601f19601f8301169050919050565b7f4e487b7100000000000000000000000000000000000000000000000000000000600052604160045260246000fd5b6106fc826106b3565b810181811067ffffffffffffffff8211171561071b5761071a6106c4565b5b80604052505050565b600061072e610695565b905061073a82826106f3565b919050565b600067ffffffffffffffff82111561075a576107596106c4565b5b610763826106b3565b9050602081019050919050565b82818337600083830152505050565b600061079261078d8461073f565b610724565b9050828152602081018484840111156107ae576107ad6106ae565b5b6107b9848285610770565b509392505050565b600082601f8301126107d6576107d56106a9565b5b81356107e684826020860161077f565b91505092915050565b6000602082840312156108055761080461069f565b5b600082013567ffffffffffffffff811115610823576108226106a4565b5b61082f848285016107c1565b91505092915050565b600081519050919050565b600082825260208201905092915050565b60005b83811015610872578082015181840152602081019050610857565b60008484015250505050565b600061088982610838565b6108938185610843565b93506108a3818560208601610854565b6108ac816106b3565b840191505092915050565b6000819050919050565b6108ca816108b7565b82525050565b600073ffffffffffffffffffffffffffffffffffffffff82169050919050565b60006108fb826108d0565b9050919050565b61090b816108f0565b82525050565b600060a082019050818103600083015261092b818861087e565b905061093a60208301876108c1565b818103604083015261094c818661087e565b905061095b60608301856108c1565b6109686080830184610902565b9695505050505050565b600081519050919050565b600082825260208201905092915050565b6000819050602082019050919050565b600082825260208201905092915050565b60006109ba82610838565b6109c4818561099e565b93506109d4818560208601610854565b6109dd816106b3565b840191505092915050565b60006109f483836109af565b905092915050565b6000602082019050919050565b6000610a1482610972565b610a1e818561097d565b935083602082028501610a308561098e565b8060005b85811015610a6c5784840389528151610a4d85826109e8565b9450610a58836109fc565b925060208a01995050600181019050610a34565b50829750879550505050505092915050565b60006020820190508181036000830152610a988184610a09565b905092915050565b610aa9816108b7565b8114610ab457600080fd5b50565b600081359050610ac681610aa0565b92915050565b600080600060608486031215610ae557610ae461069f565b5b600084013567ffffffffffffffff811115610b0357610b026106a4565b5b610b0f868287016107c1565b9350506020610b2086828701610ab7565b925050604084013567ffffffffffffffff811115610b4157610b406106a4565b5b610b4d868287016107c1565b9150509250925092565b6000602082019050610b6c6000830184610902565b92915050565b600081905092915050565b6000610b8882610838565b610b928185610b72565b9350610ba2818560208601610854565b80840191505092915050565b6000610bba8284610b7d565b915081905092915050565b7f4e487b7100000000000000000000000000000000000000000000000000000000600052602260045260246000fd5b60006002820490506001821680610c0c57607f821691505b602082108103610c1f57610c1e610bc5565b5b50919050565b7f50726f6a656374207265636f7264206e6f7420666f756e6420696e207265676960008201527f7374727900000000000000000000000000000000000000000000000000000000602082015250565b6000610c81602483610843565b9150610c8c82610c25565b604082019050919050565b60006020820190508181036000830152610cb081610c74565b9050919050565b7f43616c6c6572206973206e6f7420746865206f776e6572000000000000000000600082015250565b6000610ced601783610843565b9150610cf882610cb7565b602082019050919050565b60006020820190508181036000830152610d1c81610ce0565b9050919050565b7f50726f6a6563742049442063616e6e6f7420626520656d707479000000000000600082015250565b6000610d59601a83610843565b9150610d6482610d23565b602082019050919050565b60006020820190508181036000830152610d8881610d4c565b9050919050565b60008190508160005260206000209050919050565b60006020601f8301049050919050565b600082821b905092915050565b600060088302610df17fffffffffffffffffffffffffffffffffffffffffffffffffffffffffffffffff82610db4565b610dfb8683610db4565b95508019841693508086168417925050509392505050565b6000819050919050565b6000610e38610e33610e2e846108b7565b610e13565b6108b7565b9050919050565b6000819050919050565b610e5283610e1d565b610e66610e5e82610e3f565b848454610dc1565b825550505050565b600090565b610e7b610e6e565b610e86818484610e49565b505050565b5b81811015610eaa57610e9f600082610e73565b600181019050610e8c565b5050565b601f821115610eef57610ec081610d8f565b610ec984610da4565b81016020851015610ed8578190505b610eec610ee485610da4565b830182610e8b565b50505b505050565b600082821c905092915050565b6000610f1260001984600802610ef4565b1980831691505092915050565b6000610f2b8383610f01565b9150826002028217905092915050565b610f4482610838565b67ffffffffffffffff811115610f5d57610f5c6106c4565b5b610f678254610bf4565b610f72828285610eae565b600060209050601f831160018114610fa55760008415610f93578287015190505b610f9d8582610f1f565b865550611005565b601f198416610fb386610d8f565b60005b82811015610fdb57848901518255600182019150602085019450602081019050610fb6565b86831015610ff85784890151610ff4601f891682610f01565b8355505b6001600288020188555050505b505050505050565b600060608201905061102260008301866108c1565b8181036020830152611034818561087e565b905061104360408301846108c1565b94935050505056fea264697066735822122013fb31e28db6c11c3c6429422dcd35d6234bbc3de59619fe5bae8bc5ae4bf41164736f6c63430008140033",
  "linkReferences": {},
  "deployedLinkReferences": {}
}